{
  "contractName": "CrypticCookies",
  "abi": [
    {
      "inputs": [],
      "stateMutability": "nonpayable",
      "type": "constructor"
    },
    {
      "anonymous": false,
      "inputs": [
        {
          "indexed": true,
          "internalType": "uint256",
          "name": "timestamp",
          "type": "uint256"
        }
      ],
      "name": "EntropyAdded",
      "type": "event"
    },
    {
      "anonymous": false,
      "inputs": [
        {
          "indexed": true,
          "internalType": "uint256",
          "name": "timestamp",
          "type": "uint256"
        }
      ],
      "name": "FortuneAdded",
      "type": "event"
    },
    {
      "anonymous": false,
      "inputs": [
        {
          "indexed": true,
          "internalType": "uint256",
          "name": "chosenIndex",
          "type": "uint256"
        },
        {
          "indexed": true,
          "internalType": "uint256",
          "name": "winningIndex",
          "type": "uint256"
        },
        {
          "indexed": true,
          "internalType": "uint256",
          "name": "payout",
          "type": "uint256"
        }
      ],
      "name": "Generated",
      "type": "event"
    },
    {
      "anonymous": false,
      "inputs": [
        {
          "indexed": true,
          "internalType": "address",
          "name": "previousOwner",
          "type": "address"
        },
        {
          "indexed": true,
          "internalType": "address",
          "name": "newOwner",
          "type": "address"
        }
      ],
      "name": "OwnershipTransferred",
      "type": "event"
    },
    {
      "anonymous": false,
      "inputs": [
        {
          "indexed": true,
          "internalType": "uint256",
          "name": "newIndex",
          "type": "uint256"
        },
        {
          "indexed": true,
          "internalType": "uint256",
          "name": "timestamp",
          "type": "uint256"
        }
      ],
      "name": "UpdateJackpotIndex",
      "type": "event"
    },
    {
      "anonymous": false,
      "inputs": [
        {
          "indexed": true,
          "internalType": "address",
          "name": "oldMgr",
          "type": "address"
        },
        {
          "indexed": true,
          "internalType": "address",
          "name": "newMgr",
          "type": "address"
        },
        {
          "indexed": true,
          "internalType": "uint256",
          "name": "timestamp",
          "type": "uint256"
        }
      ],
      "name": "UpdatePaymentMGR",
      "type": "event"
    },
    {
      "anonymous": false,
      "inputs": [
        {
          "indexed": true,
          "internalType": "uint256",
          "name": "oldPrice",
          "type": "uint256"
        },
        {
          "indexed": true,
          "internalType": "uint256",
          "name": "newPrice",
          "type": "uint256"
        },
        {
          "indexed": true,
          "internalType": "uint256",
          "name": "timestamp",
          "type": "uint256"
        }
      ],
      "name": "UpdatePrice",
      "type": "event"
    },
    {
      "stateMutability": "payable",
      "type": "fallback",
      "payable": true
    },
    {
      "inputs": [],
      "name": "_PaymentMGR",
      "outputs": [
        {
          "internalType": "address",
          "name": "",
          "type": "address"
        }
      ],
      "stateMutability": "view",
      "type": "function",
      "constant": true
    },
    {
      "inputs": [],
      "name": "_price",
      "outputs": [
        {
          "internalType": "uint256",
          "name": "",
          "type": "uint256"
        }
      ],
      "stateMutability": "view",
      "type": "function",
      "constant": true
    },
    {
      "inputs": [],
      "name": "owner",
      "outputs": [
        {
          "internalType": "address",
          "name": "",
          "type": "address"
        }
      ],
      "stateMutability": "view",
      "type": "function",
      "constant": true
    },
    {
      "inputs": [],
      "name": "renounceOwnership",
      "outputs": [],
      "stateMutability": "nonpayable",
      "type": "function"
    },
    {
      "inputs": [
        {
          "internalType": "address",
          "name": "newOwner",
          "type": "address"
        }
      ],
      "name": "transferOwnership",
      "outputs": [],
      "stateMutability": "nonpayable",
      "type": "function"
    },
    {
      "stateMutability": "payable",
      "type": "receive",
      "payable": true
    },
    {
      "inputs": [
        {
          "internalType": "address",
          "name": "a",
          "type": "address"
        }
      ],
      "name": "upgrade",
      "outputs": [],
      "stateMutability": "nonpayable",
      "type": "function"
    },
    {
      "inputs": [
        {
          "internalType": "address",
          "name": "_paymgr",
          "type": "address"
        }
      ],
      "name": "setPaymentMGR",
      "outputs": [],
      "stateMutability": "nonpayable",
      "type": "function"
    },
    {
      "inputs": [
        {
          "internalType": "uint256",
          "name": "newPrice",
          "type": "uint256"
        }
      ],
      "name": "setPrice",
      "outputs": [],
      "stateMutability": "nonpayable",
      "type": "function"
    },
    {
      "inputs": [
        {
          "internalType": "string",
          "name": "f",
          "type": "string"
        }
      ],
      "name": "addFortune",
      "outputs": [],
      "stateMutability": "nonpayable",
      "type": "function"
    },
    {
      "inputs": [
        {
          "internalType": "uint256",
          "name": "newNonce",
          "type": "uint256"
        },
        {
          "internalType": "uint256",
          "name": "newIncremental",
          "type": "uint256"
        }
      ],
      "name": "addEntropy",
      "outputs": [],
      "stateMutability": "nonpayable",
      "type": "function"
    },
    {
      "inputs": [
        {
          "internalType": "uint256",
          "name": "x1",
          "type": "uint256"
        },
        {
          "internalType": "uint256",
          "name": "x2",
          "type": "uint256"
        },
        {
          "internalType": "uint256",
          "name": "x3",
          "type": "uint256"
        }
      ],
      "name": "updateJackpotIndex",
      "outputs": [],
      "stateMutability": "nonpayable",
      "type": "function"
    },
    {
      "inputs": [],
      "name": "addr",
      "outputs": [
        {
          "internalType": "address",
          "name": "",
          "type": "address"
        }
      ],
      "stateMutability": "view",
      "type": "function",
      "constant": true
    },
    {
      "inputs": [],
      "name": "versionNum",
      "outputs": [
        {
          "internalType": "uint256",
          "name": "",
          "type": "uint256"
        }
      ],
      "stateMutability": "view",
      "type": "function",
      "constant": true
    },
    {
      "inputs": [],
      "name": "balance",
      "outputs": [
        {
          "internalType": "uint256",
          "name": "",
          "type": "uint256"
        }
      ],
      "stateMutability": "view",
      "type": "function",
      "constant": true
    },
    {
      "inputs": [],
      "name": "jackpot",
      "outputs": [
        {
          "internalType": "uint256",
          "name": "",
          "type": "uint256"
        }
      ],
      "stateMutability": "view",
      "type": "function",
      "constant": true
    },
    {
      "inputs": [],
      "name": "paymentMGR",
      "outputs": [
        {
          "internalType": "address",
          "name": "",
          "type": "address"
        }
      ],
      "stateMutability": "view",
      "type": "function",
      "constant": true
    },
    {
      "inputs": [],
      "name": "totalNonces",
      "outputs": [
        {
          "internalType": "uint256",
          "name": "",
          "type": "uint256"
        }
      ],
      "stateMutability": "view",
      "type": "function",
      "constant": true
    },
    {
      "inputs": [],
      "name": "totalFortunes",
      "outputs": [
        {
          "internalType": "uint256",
          "name": "",
          "type": "uint256"
        }
      ],
      "stateMutability": "view",
      "type": "function",
      "constant": true
    },
    {
      "inputs": [
        {
          "internalType": "uint256",
          "name": "fIndex",
          "type": "uint256"
        }
      ],
      "name": "getFortune",
      "outputs": [
        {
          "internalType": "string",
          "name": "",
          "type": "string"
        }
      ],
      "stateMutability": "view",
      "type": "function",
      "constant": true
    },
    {
      "inputs": [],
      "name": "jackpotIndex",
      "outputs": [
        {
          "internalType": "uint256",
          "name": "",
          "type": "uint256"
        }
      ],
      "stateMutability": "view",
      "type": "function",
      "constant": true
    },
    {
      "inputs": [],
      "name": "totalSold",
      "outputs": [
        {
          "internalType": "uint256",
          "name": "",
          "type": "uint256"
        }
      ],
      "stateMutability": "view",
      "type": "function",
      "constant": true
    },
    {
      "inputs": [],
      "name": "totalWinners",
      "outputs": [
        {
          "internalType": "uint256",
          "name": "",
          "type": "uint256"
        }
      ],
      "stateMutability": "view",
      "type": "function",
      "constant": true
    },
    {
      "inputs": [],
      "name": "buyCookie",
      "outputs": [],
      "stateMutability": "payable",
      "type": "function",
      "payable": true
    }
  ],
  "bytecode": "0x60806040523480156200001157600080fd5b5062000032620000266200009860201b60201c565b620000a060201b60201c565b33600160006101000a81548173ffffffffffffffffffffffffffffffffffffffff021916908373ffffffffffffffffffffffffffffffffffffffff160217905550670de0b6b3a76400006002819055506000600381905550600160058190555062000164565b600033905090565b60008060009054906101000a900473ffffffffffffffffffffffffffffffffffffffff169050816000806101000a81548173ffffffffffffffffffffffffffffffffffffffff021916908373ffffffffffffffffffffffffffffffffffffffff1602179055508173ffffffffffffffffffffffffffffffffffffffff168173ffffffffffffffffffffffffffffffffffffffff167f8be0079c531659141344cd1fd0a4f28419497f9722a3daafe3b4186f6b6457e060405160405180910390a35050565b61274880620001746000396000f3fe6080604052600436106101445760003560e01c80638bc6b9ac116100b6578063be05c16c1161006f578063be05c16c146103f9578063c311789714610424578063caf96d4a1461044f578063d4ed7f381461047a578063f2fde38b146104a5578063fa8c028b146104ce5761014b565b80638bc6b9ac1461031a5780638da5cb5b146103245780639106d7ba1461034f57806391b7f5ed1461037a578063b69ef8a8146103a3578063bcc941b6146103ce5761014b565b806354e633491161010857806354e63349146102325780636b31ee011461025b578063715018a61461028657806373358bfa1461029d578063767800de146102c6578063880c42a5146102f15761014b565b80630900f0101461014d57806320db31d614610176578063235b6ea1146101a15780632fdd653e146101cc5780634cf373e6146102095761014b565b3661014b57005b005b34801561015957600080fd5b50610174600480360381019061016f9190611cd5565b6104f9565b005b34801561018257600080fd5b5061018b61065c565b6040516101989190611d1b565b60405180910390f35b3480156101ad57600080fd5b506101b6610669565b6040516101c39190611d1b565b60405180910390f35b3480156101d857600080fd5b506101f360048036038101906101ee9190611d62565b61066f565b6040516102009190611e28565b60405180910390f35b34801561021557600080fd5b50610230600480360381019061022b9190611eaf565b610774565b005b34801561023e57600080fd5b5061025960048036038101906102549190611efc565b61085f565b005b34801561026757600080fd5b50610270610a98565b60405161027d9190611d1b565b60405180910390f35b34801561029257600080fd5b5061029b610aac565b005b3480156102a957600080fd5b506102c460048036038101906102bf9190611f3c565b610b34565b005b3480156102d257600080fd5b506102db610c42565b6040516102e89190611f9e565b60405180910390f35b3480156102fd57600080fd5b5061031860048036038101906103139190611cd5565b610c4a565b005b610322610df7565b005b34801561033057600080fd5b506103396117a4565b6040516103469190611f9e565b60405180910390f35b34801561035b57600080fd5b506103646117cd565b6040516103719190611d1b565b60405180910390f35b34801561038657600080fd5b506103a1600480360381019061039c9190611d62565b6117de565b005b3480156103af57600080fd5b506103b8611895565b6040516103c59190611d1b565b60405180910390f35b3480156103da57600080fd5b506103e361189d565b6040516103f09190611d1b565b60405180910390f35b34801561040557600080fd5b5061040e6118ae565b60405161041b9190611d1b565b60405180910390f35b34801561043057600080fd5b506104396118b8565b6040516104469190611f9e565b60405180910390f35b34801561045b57600080fd5b506104646118de565b6040516104719190611d1b565b60405180910390f35b34801561048657600080fd5b5061048f6118e8565b60405161049c9190611d1b565b60405180910390f35b3480156104b157600080fd5b506104cc60048036038101906104c79190611cd5565b6118f5565b005b3480156104da57600080fd5b506104e36119ed565b6040516104f09190611f9e565b60405180910390f35b610501611a17565b73ffffffffffffffffffffffffffffffffffffffff1661051f6117a4565b73ffffffffffffffffffffffffffffffffffffffff1614610575576040517f08c379a000000000000000000000000000000000000000000000000000000000815260040161056c90612005565b60405180910390fd5b600073ffffffffffffffffffffffffffffffffffffffff168173ffffffffffffffffffffffffffffffffffffffff1614156105e5576040517f08c379a00000000000000000000000000000000000000000000000000000000081526004016105dc90612071565b60405180910390fd5b6106048173ffffffffffffffffffffffffffffffffffffffff16611a1f565b610643576040517f08c379a000000000000000000000000000000000000000000000000000000000815260040161063a906120dd565b60405180910390fd5b8073ffffffffffffffffffffffffffffffffffffffff16ff5b6000600f80549050905090565b60025481565b6060600082101580156106875750600f805490508211155b6106c6576040517f08c379a00000000000000000000000000000000000000000000000000000000081526004016106bd90612149565b60405180910390fd5b600f82815481106106da576106d9612169565b5b9060005260206000200180546106ef906121c7565b80601f016020809104026020016040519081016040528092919081815260200182805461071b906121c7565b80156107685780601f1061073d57610100808354040283529160200191610768565b820191906000526020600020905b81548152906001019060200180831161074b57829003601f168201915b50505050509050919050565b61077c611a17565b73ffffffffffffffffffffffffffffffffffffffff1661079a6117a4565b73ffffffffffffffffffffffffffffffffffffffff16146107f0576040517f08c379a00000000000000000000000000000000000000000000000000000000081526004016107e790612005565b60405180910390fd5b427fb334877bf8d9520795555821fc3b5b188e04116f13da7ed17f85949076d167da60405160405180910390a2600f82829091806001815401808255809150506001900390600052602060002001600090919290919290919290919250919061085a929190611bca565b505050565b8160018110156108a4576040517f08c379a000000000000000000000000000000000000000000000000000000000815260040161089b90612245565b60405180910390fd5b6fffffffffffffffffffffffffffffffff81106108f6576040517f08c379a00000000000000000000000000000000000000000000000000000000081526004016108ed906122b1565b60405180910390fd5b81600181101561093b576040517f08c379a000000000000000000000000000000000000000000000000000000000815260040161093290612245565b60405180910390fd5b6fffffffffffffffffffffffffffffffff811061098d576040517f08c379a0000000000000000000000000000000000000000000000000000000008152600401610984906122b1565b60405180910390fd5b610995611a17565b73ffffffffffffffffffffffffffffffffffffffff166109b36117a4565b73ffffffffffffffffffffffffffffffffffffffff1614610a09576040517f08c379a0000000000000000000000000000000000000000000000000000000008152600401610a0090612005565b60405180910390fd5b600d849080600181540180825580915050600190039060005260206000200160009091909190915055600e839080600181540180825580915050600190039060005260206000200160009091909190915055610a656010611a32565b427f711730c3047981ca3769e763674d509e1109363a607bb42c07ea9e753ca9736260405160405180910390a250505050565b6000600247610aa7919061232f565b905090565b610ab4611a17565b73ffffffffffffffffffffffffffffffffffffffff16610ad26117a4565b73ffffffffffffffffffffffffffffffffffffffff1614610b28576040517f08c379a0000000000000000000000000000000000000000000000000000000008152600401610b1f90612005565b60405180910390fd5b610b326000611a48565b565b610b3c611a17565b73ffffffffffffffffffffffffffffffffffffffff16610b5a6117a4565b73ffffffffffffffffffffffffffffffffffffffff1614610bb0576040517f08c379a0000000000000000000000000000000000000000000000000000000008152600401610ba790612005565b60405180910390fd5b610bba6010611a32565b600f80549050838383610bcd6010611b0c565b4244604051602001610be496959493929190612381565b6040516020818303038152906040528051906020012060001c610c0791906123f1565b600381905550426003547f0818a50e8b86413b2ade7a32cb95328bdc5005c5c52b0b11dcb387a776e22ba460405160405180910390a3505050565b600030905090565b610c52611a17565b73ffffffffffffffffffffffffffffffffffffffff16610c706117a4565b73ffffffffffffffffffffffffffffffffffffffff1614610cc6576040517f08c379a0000000000000000000000000000000000000000000000000000000008152600401610cbd90612005565b60405180910390fd5b600073ffffffffffffffffffffffffffffffffffffffff168173ffffffffffffffffffffffffffffffffffffffff161415610d36576040517f08c379a0000000000000000000000000000000000000000000000000000000008152600401610d2d90612071565b60405180910390fd5b428173ffffffffffffffffffffffffffffffffffffffff16600160009054906101000a900473ffffffffffffffffffffffffffffffffffffffff1673ffffffffffffffffffffffffffffffffffffffff167fa97bc8d57fcc85059bc546350ff9bf8571bcde535909417da34c290fe9e0787c60405160405180910390a480600160006101000a81548173ffffffffffffffffffffffffffffffffffffffff021916908373ffffffffffffffffffffffffffffffffffffffff16021790555050565b600254341015610e3c576040517f08c379a0000000000000000000000000000000000000000000000000000000008152600401610e339061246e565b60405180910390fd5b60001515600160149054906101000a900460ff16151514610e92576040517f08c379a0000000000000000000000000000000000000000000000000000000008152600401610e8990612500565b60405180910390fd5b60018060146101000a81548160ff021916908315150217905550600160009054906101000a900473ffffffffffffffffffffffffffffffffffffffff1673ffffffffffffffffffffffffffffffffffffffff166108fc60028054610ef6919061232f565b9081150290604051600060405180830381858888f19350505050158015610f21573d6000803e3d6000fd5b50610f65600d6001600d80549050610f399190612520565b81548110610f4a57610f49612169565b5b9060005260206000200154610f5f6010611b0c565b42611b1a565b600781905550610fb8600754600d60075481548110610f8757610f86612169565b5b9060005260206000200154600e60075481548110610fa857610fa7612169565b5b9060005260206000200154611b1a565b6008819055506fffffffffffffffffffffffffffffffff600e60085481548110610fe557610fe4612169565b5b9060005260206000200154600d6007548154811061100657611005612169565b5b906000526020600020015461101b9190612554565b101561107d57600e6008548154811061103757611036612169565b5b9060005260206000200154600d6007548154811061105857611057612169565b5b9060005260206000200160008282546110719190612554565b925050819055506110a5565b600854600d6007548154811061109657611095612169565b5b90600052602060002001819055505b611110600d600754815481106110be576110bd612169565b5b9060005260206000200154600d600854815481106110df576110de612169565b5b9060005260206000200154600e60085481548110611100576110ff612169565b5b9060005260206000200154611b1a565b600981905550611181600d6008548154811061112f5761112e612169565b5b9060005260206000200154600d600954815481106111505761114f612169565b5b9060005260206000200154600e6009548154811061117157611170612169565b5b9060005260206000200154611b1a565b600a819055506fffffffffffffffffffffffffffffffff600e600a54815481106111ae576111ad612169565b5b9060005260206000200154600d600954815481106111cf576111ce612169565b5b90600052602060002001546111e49190612554565b101561124657600e600a5481548110611200576111ff612169565b5b9060005260206000200154600d6009548154811061122157611220612169565b5b90600052602060002001600082825461123a9190612554565b9250508190555061126e565b600a54600d6009548154811061125f5761125e612169565b5b90600052602060002001819055505b6112d9600d6007548154811061128757611286612169565b5b9060005260206000200154600d600854815481106112a8576112a7612169565b5b9060005260206000200154600e600854815481106112c9576112c8612169565b5b9060005260206000200154611b1a565b600b8190555061134a600d600754815481106112f8576112f7612169565b5b9060005260206000200154600d6008548154811061131957611318612169565b5b9060005260206000200154600e6008548154811061133a57611339612169565b5b9060005260206000200154611b1a565b600c819055506fffffffffffffffffffffffffffffffff600e600c548154811061137757611376612169565b5b9060005260206000200154600d600b548154811061139857611397612169565b5b90600052602060002001546113ad9190612554565b101561140f57600e600c54815481106113c9576113c8612169565b5b9060005260206000200154600d600b54815481106113ea576113e9612169565b5b9060005260206000200160008282546114039190612554565b92505081905550611437565b600c54600d600b548154811061142857611427612169565b5b90600052602060002001819055505b61149f600d60018154811061144f5761144e612169565b5b9060005260206000200154600d60038154811061146f5761146e612169565b5b9060005260206000200154600d60058154811061148f5761148e612169565b5b9060005260206000200154611b72565b600681905550600354600654141561173e576114b9610a98565b600460008282546114ca9190612554565b925050819055506114d9610a98565b6003546006547f80cffd63e7a9e906fa3db51d48897e50ce8c7c5a0fb4ab7bf81fd8244584903d60405160405180910390a43373ffffffffffffffffffffffffffffffffffffffff166108fc61152d610a98565b9081150290604051600060405180830381858888f19350505050158015611558573d6000803e3d6000fd5b506115636012611a32565b600f80549050600d6007548154811061157f5761157e612169565b5b9060005260206000200154600d600854815481106115a05761159f612169565b5b9060005260206000200154600d600954815481106115c1576115c0612169565b5b9060005260206000200154600d600a54815481106115e2576115e1612169565b5b9060005260206000200154600d600b548154811061160357611602612169565b5b9060005260206000200154600d600c548154811061162457611623612169565b5b9060005260206000200154600e6007548154811061164557611644612169565b5b9060005260206000200154600e6008548154811061166657611665612169565b5b9060005260206000200154600e6009548154811061168757611686612169565b5b9060005260206000200154600e600a54815481106116a8576116a7612169565b5b9060005260206000200154600e600b54815481106116c9576116c8612169565b5b9060005260206000200154600e600c54815481106116ea576116e9612169565b5b90600052602060002001546040516020016117109c9b9a999897969594939291906125aa565b6040516020818303038152906040528051906020012060001c61173391906123f1565b600381905550611773565b60006003546006547f80cffd63e7a9e906fa3db51d48897e50ce8c7c5a0fb4ab7bf81fd8244584903d60405160405180910390a45b61177d6010611a32565b6117876011611a32565b6000600160146101000a81548160ff021916908315150217905550565b60008060009054906101000a900473ffffffffffffffffffffffffffffffffffffffff16905090565b60006117d96011611b0c565b905090565b6117e6611a17565b73ffffffffffffffffffffffffffffffffffffffff166118046117a4565b73ffffffffffffffffffffffffffffffffffffffff161461185a576040517f08c379a000000000000000000000000000000000000000000000000000000000815260040161185190612005565b60405180910390fd5b42816002547fd486fb0c0b873bd0a2d9bbbacab5868e17fb817e7985163ee9064598bde8cd9d60405160405180910390a48060028190555050565b600047905090565b60006118a96012611b0c565b905090565b6000600354905090565b600160009054906101000a900473ffffffffffffffffffffffffffffffffffffffff1681565b6000600554905090565b6000600d80549050905090565b6118fd611a17565b73ffffffffffffffffffffffffffffffffffffffff1661191b6117a4565b73ffffffffffffffffffffffffffffffffffffffff1614611971576040517f08c379a000000000000000000000000000000000000000000000000000000000815260040161196890612005565b60405180910390fd5b600073ffffffffffffffffffffffffffffffffffffffff168173ffffffffffffffffffffffffffffffffffffffff1614156119e1576040517f08c379a00000000000000000000000000000000000000000000000000000000081526004016119d8906126f2565b60405180910390fd5b6119ea81611a48565b50565b6000600160009054906101000a900473ffffffffffffffffffffffffffffffffffffffff16905090565b600033905090565b600080823b905060008111915050919050565b6001816000016000828254019250508190555050565b60008060009054906101000a900473ffffffffffffffffffffffffffffffffffffffff169050816000806101000a81548173ffffffffffffffffffffffffffffffffffffffff021916908373ffffffffffffffffffffffffffffffffffffffff1602179055508173ffffffffffffffffffffffffffffffffffffffff168173ffffffffffffffffffffffffffffffffffffffff167f8be0079c531659141344cd1fd0a4f28419497f9722a3daafe3b4186f6b6457e060405160405180910390a35050565b600081600001549050919050565b6000600d80549050848484611b2f6010611b0c565b4244604051602001611b4696959493929190612381565b6040516020818303038152906040528051906020012060001c611b6991906123f1565b90509392505050565b6000600f80549050848484611b876010611b0c565b4244604051602001611b9e96959493929190612381565b6040516020818303038152906040528051906020012060001c611bc191906123f1565b90509392505050565b828054611bd6906121c7565b90600052602060002090601f016020900481019282611bf85760008555611c3f565b82601f10611c1157803560ff1916838001178555611c3f565b82800160010185558215611c3f579182015b82811115611c3e578235825591602001919060010190611c23565b5b509050611c4c9190611c50565b5090565b5b80821115611c69576000816000905550600101611c51565b5090565b600080fd5b600080fd5b600073ffffffffffffffffffffffffffffffffffffffff82169050919050565b6000611ca282611c77565b9050919050565b611cb281611c97565b8114611cbd57600080fd5b50565b600081359050611ccf81611ca9565b92915050565b600060208284031215611ceb57611cea611c6d565b5b6000611cf984828501611cc0565b91505092915050565b6000819050919050565b611d1581611d02565b82525050565b6000602082019050611d306000830184611d0c565b92915050565b611d3f81611d02565b8114611d4a57600080fd5b50565b600081359050611d5c81611d36565b92915050565b600060208284031215611d7857611d77611c6d565b5b6000611d8684828501611d4d565b91505092915050565b600081519050919050565b600082825260208201905092915050565b60005b83811015611dc9578082015181840152602081019050611dae565b83811115611dd8576000848401525b50505050565b6000601f19601f8301169050919050565b6000611dfa82611d8f565b611e048185611d9a565b9350611e14818560208601611dab565b611e1d81611dde565b840191505092915050565b60006020820190508181036000830152611e428184611def565b905092915050565b600080fd5b600080fd5b600080fd5b60008083601f840112611e6f57611e6e611e4a565b5b8235905067ffffffffffffffff811115611e8c57611e8b611e4f565b5b602083019150836001820283011115611ea857611ea7611e54565b5b9250929050565b60008060208385031215611ec657611ec5611c6d565b5b600083013567ffffffffffffffff811115611ee457611ee3611c72565b5b611ef085828601611e59565b92509250509250929050565b60008060408385031215611f1357611f12611c6d565b5b6000611f2185828601611d4d565b9250506020611f3285828601611d4d565b9150509250929050565b600080600060608486031215611f5557611f54611c6d565b5b6000611f6386828701611d4d565b9350506020611f7486828701611d4d565b9250506040611f8586828701611d4d565b9150509250925092565b611f9881611c97565b82525050565b6000602082019050611fb36000830184611f8f565b92915050565b7f4f776e61626c653a2063616c6c6572206973206e6f7420746865206f776e6572600082015250565b6000611fef602083611d9a565b9150611ffa82611fb9565b602082019050919050565b6000602082019050818103600083015261201e81611fe2565b9050919050565b7f4572723a206e756c6c2061646472657373000000000000000000000000000000600082015250565b600061205b601183611d9a565b915061206682612025565b602082019050919050565b6000602082019050818103600083015261208a8161204e565b9050919050565b7f4572723a2061646472657373206e6f74206120636f6e74726163740000000000600082015250565b60006120c7601b83611d9a565b91506120d282612091565b602082019050919050565b600060208201905081810360008301526120f6816120ba565b9050919050565b7f4572723a20696e76616c696420696e6465780000000000000000000000000000600082015250565b6000612133601283611d9a565b915061213e826120fd565b602082019050919050565b6000602082019050818103600083015261216281612126565b9050919050565b7f4e487b7100000000000000000000000000000000000000000000000000000000600052603260045260246000fd5b7f4e487b7100000000000000000000000000000000000000000000000000000000600052602260045260246000fd5b600060028204905060018216806121df57607f821691505b602082108114156121f3576121f2612198565b5b50919050565b7f4572723a20746f6f20736d616c6c000000000000000000000000000000000000600082015250565b600061222f600e83611d9a565b915061223a826121f9565b602082019050919050565b6000602082019050818103600083015261225e81612222565b9050919050565b7f4572723a20746f6f206c61726765000000000000000000000000000000000000600082015250565b600061229b600e83611d9a565b91506122a682612265565b602082019050919050565b600060208201905081810360008301526122ca8161228e565b9050919050565b7f4e487b7100000000000000000000000000000000000000000000000000000000600052601260045260246000fd5b7f4e487b7100000000000000000000000000000000000000000000000000000000600052601160045260246000fd5b600061233a82611d02565b915061234583611d02565b925082612355576123546122d1565b5b828204905092915050565b6000819050919050565b61237b61237682611d02565b612360565b82525050565b600061238d828961236a565b60208201915061239d828861236a565b6020820191506123ad828761236a565b6020820191506123bd828661236a565b6020820191506123cd828561236a565b6020820191506123dd828461236a565b602082019150819050979650505050505050565b60006123fc82611d02565b915061240783611d02565b925082612417576124166122d1565b5b828206905092915050565b7f4572723a20756e64657266756e64656400000000000000000000000000000000600082015250565b6000612458601083611d9a565b915061246382612422565b602082019050919050565b600060208201905081810360008301526124878161244b565b9050919050565b7f4572723a206c6f636b65642c2054727920616761696e20696e2061206d6f6d6560008201527f6e742e0000000000000000000000000000000000000000000000000000000000602082015250565b60006124ea602383611d9a565b91506124f58261248e565b604082019050919050565b60006020820190508181036000830152612519816124dd565b9050919050565b600061252b82611d02565b915061253683611d02565b92508282101561254957612548612300565b5b828203905092915050565b600061255f82611d02565b915061256a83611d02565b9250827fffffffffffffffffffffffffffffffffffffffffffffffffffffffffffffffff0382111561259f5761259e612300565b5b828201905092915050565b60006125b6828f61236a565b6020820191506125c6828e61236a565b6020820191506125d6828d61236a565b6020820191506125e6828c61236a565b6020820191506125f6828b61236a565b602082019150612606828a61236a565b602082019150612616828961236a565b602082019150612626828861236a565b602082019150612636828761236a565b602082019150612646828661236a565b602082019150612656828561236a565b602082019150612666828461236a565b6020820191508190509d9c50505050505050505050505050565b7f4f776e61626c653a206e6577206f776e657220697320746865207a65726f206160008201527f6464726573730000000000000000000000000000000000000000000000000000602082015250565b60006126dc602683611d9a565b91506126e782612680565b604082019050919050565b6000602082019050818103600083015261270b816126cf565b905091905056fea2646970667358221220c7a7fcd270913c1f39ff4e6142f6bd204673b3f8ea1d31d2e2c07fc5ede5667464736f6c634300080a0033",
  "immutableReferences": {},
  "source": "//SPDX-License-Identifier: 0BSD\npragma solidity ^0.8.10;\n\nimport \"@openzeppelin/contracts/utils/Counters.sol\";\nimport \"@openzeppelin/contracts/access/Ownable.sol\";\nimport \"@openzeppelin/contracts/utils/Address.sol\";\n\nuint constant INT_MAX = 2**128 - 1; // half the size of integer max value\n\ncontract CrypticCookies is Ownable {\n    using Address for address;\n    using Counters for Counters.Counter;\n\n    address public _PaymentMGR;\n    bool private _locked; //locks the buyCookie() during execution\n    uint256 public _price;\n    uint256 private _jackpotIndex; //the Lucky Number\n    uint256 private _totalPrizes; //the total of all prizes paid out\n    uint256 private _version; //contract version number    \n    uint256 private fortuneIndex;\n    uint256 private i1;\n    uint256 private i2;\n    uint256 private i3;\n    uint256 private i4;\n    uint256 private i5;\n    uint256 private i6; // index selection variables\n    uint256[] private _n; //nonces\n    uint256[] private _i; //incrementals\n    string[] internal _fortunes;\n\n\n    //used for adding entropy\n    Counters.Counter internal _counter;\n\n    //total number of fortunes sold\n    Counters.Counter internal _totalSold;\n\n    //total number of winners\n    Counters.Counter internal _winners;\n\n    //events\n    event UpdatePaymentMGR(address indexed oldMgr, address indexed newMgr, uint256 indexed timestamp);\n    event UpdatePrice(uint256 indexed oldPrice, uint256 indexed newPrice, uint256 indexed timestamp);\n    event FortuneAdded(uint256 indexed timestamp);\n    event EntropyAdded(uint256 indexed timestamp);\n    event UpdateJackpotIndex(uint256 indexed newIndex, uint256 indexed timestamp);\n    event Generated(uint256 indexed chosenIndex, uint256 indexed winningIndex, uint256 indexed payout);\n\n    constructor() {\n        _PaymentMGR = msg.sender;\n\n        _price = 1000000000000000000; // 1 $ONE\n\n        _jackpotIndex = 0;\n\n        _version = 1;\n    }\n\n    fallback() external payable {}\n    receive() external payable {}\n    \n    function upgrade(address a) external virtual onlyOwner {\n        require(a != address(0), \"Err: null address\");\n        require(a.isContract(), \"Err: address not a contract\");\n        selfdestruct(payable(a));\n    }\n\n    function setPaymentMGR(address _paymgr) external virtual onlyOwner {\n        require(_paymgr != address(0), \"Err: null address\");\n        emit UpdatePaymentMGR(_PaymentMGR, _paymgr, block.timestamp);\n        _PaymentMGR = _paymgr;\n    }\n\n    function setPrice(uint256 newPrice) external virtual onlyOwner {\n        emit UpdatePrice(_price, newPrice, block.timestamp);\n        _price = newPrice;\n    }\n\n    function addFortune(string calldata f) external virtual onlyOwner {\n        emit FortuneAdded(block.timestamp);\n        _fortunes.push(f);\n    }\n\n    function addEntropy(uint256 newNonce, uint256 newIncremental) \n    external sizeChk(newNonce) sizeChk(newIncremental) virtual onlyOwner {\n        //save the new nonce and incremental values to storage\n        _n.push(newNonce);\n        _i.push(newIncremental);\n\n        //add additional entropy\n        _counter.increment();\n\n        emit EntropyAdded(block.timestamp);\n    }\n\n    //for manually forcing an update of the jackpot index\n    function updateJackpotIndex(uint256 x1, uint256 x2, uint256 x3) external virtual onlyOwner {\n        _counter.increment();\n        _jackpotIndex = uint256(\n            keccak256(\n                abi.encodePacked(\n                    x1,\n                    x2,\n                    x3,\n                    _counter.current(),\n                    block.timestamp,\n                    block.difficulty\n                )\n            )\n        ) % _fortunes.length;\n        emit UpdateJackpotIndex(_jackpotIndex, block.timestamp);\n    }\n\n    function chooseFortuneIndex(uint256 y1, uint256 y2, uint256 y3) internal virtual returns (uint256) {\n        return uint256(\n            keccak256(\n                abi.encodePacked(\n                    y1,\n                    y2,\n                    y3,\n                    _counter.current(),\n                    block.timestamp,\n                    block.difficulty\n                )\n            )\n        ) % _fortunes.length;\n    }\n\n    function resolveIndex(uint256 z1, uint256 z2, uint256 z3) internal virtual returns (uint256) {\n        return uint256(\n            keccak256(\n                abi.encodePacked(\n                    z1,\n                    z2,\n                    z3,\n                    _counter.current(),\n                    block.timestamp,\n                    block.difficulty\n                )\n            )\n        ) % _n.length;\n    }\n\n    function swapIndex(uint256 a1, uint256 a2) internal virtual {\n        uint256 temp;\n        temp = _n[a1];\n        _n[a1] = _n[a2];\n        _n[a2] = temp;\n    }\n\n    function addr() public view returns(address) {\n        return address(this);\n    }\n\n    function versionNum() public view returns (uint256) {\n        return _version;\n    }\n\n    function balance() public view returns (uint256) {\n        return address(this).balance;\n    }\n\n    function jackpot() public view returns (uint256) {\n        return address(this).balance / 2;\n    }\n\n    function paymentMGR() public view returns (address) {\n        return _PaymentMGR;\n    }\n\n    function totalNonces() public view returns (uint256) {\n        return _n.length;\n    }\n\n    function totalFortunes() public view returns (uint256) {\n        return _fortunes.length;\n    }\n\n    function getFortune(uint256 fIndex) external view returns (string memory) {\n        require(fIndex >= 0 && fIndex <= _fortunes.length, \"Err: invalid index\");\n        return _fortunes[fIndex];\n    }\n\n    function jackpotIndex() public view returns(uint256) {\n        return _jackpotIndex;\n    }\n\n    function totalSold() public view returns (uint256){\n        return _totalSold.current();\n    }\n\n    function totalWinners() public view returns (uint256) {\n        return _winners.current();\n    }\n\n\n    function buyCookie() external payable funded isLocked {\n        //lock this function during execution\n        _locked = true;\n\n        //send dev fee, the rest stays on contract as jackpot\n        payable(_PaymentMGR).transfer(_price / 2);\n        \n        //generate seeds to begin the process\n        \n        //use the seeds to pick which indexes are chosen for the nonce and incremental\n        i1 = resolveIndex(_n[_n.length - 1], _counter.current(), block.timestamp);\n        i2 = resolveIndex(i1, _n[i1], _i[i1]);\n        //increment the chosen nonce with its incremental value\n        if(_n[i1] + _i[i2] < INT_MAX) {\n            _n[i1] += _i[i2];\n        } else {\n            _n[i1] = i2; // reset if nonce has risen out of range\n        }\n        \n        //use the seeds to pick which indexes are chosen for the nonce and incremental\n        i3 = resolveIndex(_n[i1], _n[i2], _i[i2]);\n        i4 = resolveIndex(_n[i2], _n[i3], _i[i3]);\n        //increment the chosen nonce with its incremental value\n        if(_n[i3] + _i[i4] < INT_MAX) {\n            _n[i3] += _i[i4];\n        } else {\n            _n[i3] = i4; // reset if nonce has risen out of range\n        }\n    \n        //use the seeds to pick which indexes are chosen for the nonce and incremental\n        i5 = resolveIndex(_n[i1], _n[i2], _i[i2]);\n        i6 = resolveIndex(_n[i1], _n[i2], _i[i2]);\n        //increment the chosen nonce with its incremental value\n        if(_n[i5] + _i[i6] < INT_MAX) {\n            _n[i5] += _i[i6];\n        } else {\n            _n[i5] = i6; // reset if nonce has risen out of range\n        }\n        \n        //now that the statistical probabilities have been rendered non-trivial to predict,\n        //reveal which index was chosen for the user.\n        fortuneIndex = chooseFortuneIndex(_n[1], _n[3], _n[5]);\n\n        //winner check\n        if(fortuneIndex == _jackpotIndex) {\n            _totalPrizes += jackpot();\n            emit Generated(fortuneIndex, _jackpotIndex, jackpot());\n            payable(msg.sender).transfer(jackpot());\n            \n            _winners.increment();\n            \n            _jackpotIndex = uint256(\n                keccak256(\n                    abi.encodePacked(\n                        _n[i1],\n                        _n[i2],\n                        _n[i3],\n                        _n[i4],\n                        _n[i5],\n                        _n[i6],\n                        _i[i1],\n                        _i[i2],\n                        _i[i3],\n                        _i[i4],\n                        _i[i5],\n                        _i[i6]\n                    )\n                )\n            ) % _fortunes.length;\n        } else {\n            emit Generated(fortuneIndex, _jackpotIndex, 0);\n        }\n\n        _counter.increment();\n        _totalSold.increment();\n        _locked = false; //unlock execution of the buyCookie()\n    }\n\n\n    modifier funded {\n        require(msg.value >= _price, \"Err: underfunded\");\n        _;\n    }\n\n    modifier sizeChk(uint256 __X) {\n        require(__X >= 1, \"Err: too small\");\n        require(__X < INT_MAX, \"Err: too large\");\n        _;\n    }\n\n    modifier isLocked {\n        require(_locked == false, \"Err: locked, Try again in a moment.\");\n        _;\n    }\n}",
  "sourcePath": "/home/user/Projects/cryptic_cookies/contracts/CrypticCookies.sol",
  "compiler": {
    "name": "solc",
    "version": "0.8.10+commit.fc410830.Emscripten.clang"
  },
  "schemaVersion": "3.4.4",
  "updatedAt": "2022-02-08T06:01:33.795Z",
  "networkType": "ethereum",
  "devdoc": {
    "kind": "dev",
    "methods": {
      "owner()": {
        "details": "Returns the address of the current owner."
      },
      "renounceOwnership()": {
        "details": "Leaves the contract without owner. It will not be possible to call `onlyOwner` functions anymore. Can only be called by the current owner. NOTE: Renouncing ownership will leave the contract without an owner, thereby removing any functionality that is only available to the owner."
      },
      "transferOwnership(address)": {
        "details": "Transfers ownership of the contract to a new account (`newOwner`). Can only be called by the current owner."
      }
    },
    "version": 1
  },
  "userdoc": {
    "kind": "user",
    "methods": {},
    "version": 1
  }
}