{
  "contractName": "PaymentMGR",
  "abi": [
    {
      "inputs": [
        {
          "internalType": "address[]",
          "name": "payees",
          "type": "address[]"
        },
        {
          "internalType": "uint256[]",
          "name": "shares_",
          "type": "uint256[]"
        }
      ],
      "stateMutability": "nonpayable",
      "type": "constructor"
    },
    {
      "anonymous": false,
      "inputs": [
        {
          "indexed": true,
          "internalType": "contract IERC20",
          "name": "token",
          "type": "address"
        },
        {
          "indexed": false,
          "internalType": "address",
          "name": "to",
          "type": "address"
        },
        {
          "indexed": false,
          "internalType": "uint256",
          "name": "amount",
          "type": "uint256"
        }
      ],
      "name": "ERC20PaymentReleased",
      "type": "event"
    },
    {
      "anonymous": false,
      "inputs": [
        {
          "indexed": false,
          "internalType": "address",
          "name": "account",
          "type": "address"
        },
        {
          "indexed": false,
          "internalType": "uint256",
          "name": "shares",
          "type": "uint256"
        }
      ],
      "name": "PayeeAdded",
      "type": "event"
    },
    {
      "anonymous": false,
      "inputs": [
        {
          "indexed": false,
          "internalType": "address",
          "name": "from",
          "type": "address"
        },
        {
          "indexed": false,
          "internalType": "uint256",
          "name": "amount",
          "type": "uint256"
        }
      ],
      "name": "PaymentReceived",
      "type": "event"
    },
    {
      "anonymous": false,
      "inputs": [
        {
          "indexed": false,
          "internalType": "address",
          "name": "to",
          "type": "address"
        },
        {
          "indexed": false,
          "internalType": "uint256",
          "name": "amount",
          "type": "uint256"
        }
      ],
      "name": "PaymentReleased",
      "type": "event"
    },
    {
      "inputs": [
        {
          "internalType": "uint256",
          "name": "index",
          "type": "uint256"
        }
      ],
      "name": "payee",
      "outputs": [
        {
          "internalType": "address",
          "name": "",
          "type": "address"
        }
      ],
      "stateMutability": "view",
      "type": "function",
      "constant": true
    },
    {
      "inputs": [
        {
          "internalType": "address payable",
          "name": "account",
          "type": "address"
        }
      ],
      "name": "release",
      "outputs": [],
      "stateMutability": "nonpayable",
      "type": "function"
    },
    {
      "inputs": [
        {
          "internalType": "contract IERC20",
          "name": "token",
          "type": "address"
        },
        {
          "internalType": "address",
          "name": "account",
          "type": "address"
        }
      ],
      "name": "release",
      "outputs": [],
      "stateMutability": "nonpayable",
      "type": "function"
    },
    {
      "inputs": [
        {
          "internalType": "contract IERC20",
          "name": "token",
          "type": "address"
        },
        {
          "internalType": "address",
          "name": "account",
          "type": "address"
        }
      ],
      "name": "released",
      "outputs": [
        {
          "internalType": "uint256",
          "name": "",
          "type": "uint256"
        }
      ],
      "stateMutability": "view",
      "type": "function",
      "constant": true
    },
    {
      "inputs": [
        {
          "internalType": "address",
          "name": "account",
          "type": "address"
        }
      ],
      "name": "released",
      "outputs": [
        {
          "internalType": "uint256",
          "name": "",
          "type": "uint256"
        }
      ],
      "stateMutability": "view",
      "type": "function",
      "constant": true
    },
    {
      "inputs": [
        {
          "internalType": "address",
          "name": "account",
          "type": "address"
        }
      ],
      "name": "shares",
      "outputs": [
        {
          "internalType": "uint256",
          "name": "",
          "type": "uint256"
        }
      ],
      "stateMutability": "view",
      "type": "function",
      "constant": true
    },
    {
      "inputs": [
        {
          "internalType": "contract IERC20",
          "name": "token",
          "type": "address"
        }
      ],
      "name": "totalReleased",
      "outputs": [
        {
          "internalType": "uint256",
          "name": "",
          "type": "uint256"
        }
      ],
      "stateMutability": "view",
      "type": "function",
      "constant": true
    },
    {
      "inputs": [],
      "name": "totalReleased",
      "outputs": [
        {
          "internalType": "uint256",
          "name": "",
          "type": "uint256"
        }
      ],
      "stateMutability": "view",
      "type": "function",
      "constant": true
    },
    {
      "inputs": [],
      "name": "totalShares",
      "outputs": [
        {
          "internalType": "uint256",
          "name": "",
          "type": "uint256"
        }
      ],
      "stateMutability": "view",
      "type": "function",
      "constant": true
    },
    {
      "stateMutability": "payable",
      "type": "receive",
      "payable": true
    },
    {
      "inputs": [],
      "name": "addrPaymentMGR",
      "outputs": [
        {
          "internalType": "address",
          "name": "",
          "type": "address"
        }
      ],
      "stateMutability": "view",
      "type": "function",
      "constant": true
    }
  ],
  "bytecode": "0x60806040523480156200001157600080fd5b50604051620023223803806200232283398181016040528101906200003791906200067a565b8181805182511462000080576040517f08c379a0000000000000000000000000000000000000000000000000000000008152600401620000779062000786565b60405180910390fd5b6000825111620000c7576040517f08c379a0000000000000000000000000000000000000000000000000000000008152600401620000be90620007f8565b60405180910390fd5b60005b8251811015620001365762000120838281518110620000ee57620000ed6200081a565b5b60200260200101518383815181106200010c576200010b6200081a565b5b60200260200101516200014160201b60201c565b80806200012d9062000878565b915050620000ca565b505050505062000b14565b600073ffffffffffffffffffffffffffffffffffffffff168273ffffffffffffffffffffffffffffffffffffffff161415620001b4576040517f08c379a0000000000000000000000000000000000000000000000000000000008152600401620001ab906200093c565b60405180910390fd5b60008111620001fa576040517f08c379a0000000000000000000000000000000000000000000000000000000008152600401620001f190620009ae565b60405180910390fd5b6000600260008473ffffffffffffffffffffffffffffffffffffffff1673ffffffffffffffffffffffffffffffffffffffff16815260200190815260200160002054146200027f576040517f08c379a0000000000000000000000000000000000000000000000000000000008152600401620002769062000a46565b60405180910390fd5b6004829080600181540180825580915050600190039060005260206000200160009091909190916101000a81548173ffffffffffffffffffffffffffffffffffffffff021916908373ffffffffffffffffffffffffffffffffffffffff16021790555080600260008473ffffffffffffffffffffffffffffffffffffffff1673ffffffffffffffffffffffffffffffffffffffff168152602001908152602001600020819055508060005462000336919062000a68565b6000819055507f40c340f65e17194d14ddddb073d3c9f888e3cb52b5aae0c6c7706b4fbc905fac82826040516200036f92919062000ae7565b60405180910390a15050565b6000604051905090565b600080fd5b600080fd5b600080fd5b6000601f19601f8301169050919050565b7f4e487b7100000000000000000000000000000000000000000000000000000000600052604160045260246000fd5b620003df8262000394565b810181811067ffffffffffffffff82111715620004015762000400620003a5565b5b80604052505050565b6000620004166200037b565b9050620004248282620003d4565b919050565b600067ffffffffffffffff821115620004475762000446620003a5565b5b602082029050602081019050919050565b600080fd5b600073ffffffffffffffffffffffffffffffffffffffff82169050919050565b60006200048a826200045d565b9050919050565b6200049c816200047d565b8114620004a857600080fd5b50565b600081519050620004bc8162000491565b92915050565b6000620004d9620004d38462000429565b6200040a565b90508083825260208201905060208402830185811115620004ff57620004fe62000458565b5b835b818110156200052c5780620005178882620004ab565b84526020840193505060208101905062000501565b5050509392505050565b600082601f8301126200054e576200054d6200038f565b5b815162000560848260208601620004c2565b91505092915050565b600067ffffffffffffffff821115620005875762000586620003a5565b5b602082029050602081019050919050565b6000819050919050565b620005ad8162000598565b8114620005b957600080fd5b50565b600081519050620005cd81620005a2565b92915050565b6000620005ea620005e48462000569565b6200040a565b9050808382526020820190506020840283018581111562000610576200060f62000458565b5b835b818110156200063d5780620006288882620005bc565b84526020840193505060208101905062000612565b5050509392505050565b600082601f8301126200065f576200065e6200038f565b5b815162000671848260208601620005d3565b91505092915050565b6000806040838503121562000694576200069362000385565b5b600083015167ffffffffffffffff811115620006b557620006b46200038a565b5b620006c38582860162000536565b925050602083015167ffffffffffffffff811115620006e757620006e66200038a565b5b620006f58582860162000647565b9150509250929050565b600082825260208201905092915050565b7f5061796d656e7453706c69747465723a2070617965657320616e64207368617260008201527f6573206c656e677468206d69736d617463680000000000000000000000000000602082015250565b60006200076e603283620006ff565b91506200077b8262000710565b604082019050919050565b60006020820190508181036000830152620007a1816200075f565b9050919050565b7f5061796d656e7453706c69747465723a206e6f20706179656573000000000000600082015250565b6000620007e0601a83620006ff565b9150620007ed82620007a8565b602082019050919050565b600060208201905081810360008301526200081381620007d1565b9050919050565b7f4e487b7100000000000000000000000000000000000000000000000000000000600052603260045260246000fd5b7f4e487b7100000000000000000000000000000000000000000000000000000000600052601160045260246000fd5b6000620008858262000598565b91507fffffffffffffffffffffffffffffffffffffffffffffffffffffffffffffffff821415620008bb57620008ba62000849565b5b600182019050919050565b7f5061796d656e7453706c69747465723a206163636f756e74206973207468652060008201527f7a65726f20616464726573730000000000000000000000000000000000000000602082015250565b600062000924602c83620006ff565b91506200093182620008c6565b604082019050919050565b60006020820190508181036000830152620009578162000915565b9050919050565b7f5061796d656e7453706c69747465723a20736861726573206172652030000000600082015250565b600062000996601d83620006ff565b9150620009a3826200095e565b602082019050919050565b60006020820190508181036000830152620009c98162000987565b9050919050565b7f5061796d656e7453706c69747465723a206163636f756e7420616c726561647960008201527f2068617320736861726573000000000000000000000000000000000000000000602082015250565b600062000a2e602b83620006ff565b915062000a3b82620009d0565b604082019050919050565b6000602082019050818103600083015262000a618162000a1f565b9050919050565b600062000a758262000598565b915062000a828362000598565b9250827fffffffffffffffffffffffffffffffffffffffffffffffffffffffffffffffff0382111562000aba5762000ab962000849565b5b828201905092915050565b62000ad0816200047d565b82525050565b62000ae18162000598565b82525050565b600060408201905062000afe600083018562000ac5565b62000b0d602083018462000ad6565b9392505050565b6117fe8062000b246000396000f3fe6080604052600436106100955760003560e01c80638b83209b116100595780638b83209b146101c65780639852595c14610203578063ce7c2ac214610240578063d79779b21461027d578063e33b7de3146102ba576100dc565b806319165587146100e15780633a98ef391461010a578063406072a91461013557806348b75044146101725780636b0b8a381461019b576100dc565b366100dc577f6ef95f06320e7a25a04a175ca677b7052bdd97131872c2192525a629f51be7706100c36102e5565b346040516100d2929190610dc5565b60405180910390a1005b600080fd5b3480156100ed57600080fd5b5061010860048036038101906101039190610e31565b6102ed565b005b34801561011657600080fd5b5061011f610498565b60405161012c9190610e5e565b60405180910390f35b34801561014157600080fd5b5061015c60048036038101906101579190610ee3565b6104a1565b6040516101699190610e5e565b60405180910390f35b34801561017e57600080fd5b5061019960048036038101906101949190610ee3565b610528565b005b3480156101a757600080fd5b506101b06107e1565b6040516101bd9190610f23565b60405180910390f35b3480156101d257600080fd5b506101ed60048036038101906101e89190610f6a565b6107e9565b6040516101fa9190610f23565b60405180910390f35b34801561020f57600080fd5b5061022a60048036038101906102259190610f97565b610831565b6040516102379190610e5e565b60405180910390f35b34801561024c57600080fd5b5061026760048036038101906102629190610f97565b61087a565b6040516102749190610e5e565b60405180910390f35b34801561028957600080fd5b506102a4600480360381019061029f9190610fc4565b6108c3565b6040516102b19190610e5e565b60405180910390f35b3480156102c657600080fd5b506102cf61090c565b6040516102dc9190610e5e565b60405180910390f35b600033905090565b6000600260008373ffffffffffffffffffffffffffffffffffffffff1673ffffffffffffffffffffffffffffffffffffffff168152602001908152602001600020541161036f576040517f08c379a000000000000000000000000000000000000000000000000000000000815260040161036690611074565b60405180910390fd5b600061037961090c565b4761038491906110c3565b9050600061039b838361039686610831565b610916565b905060008114156103e1576040517f08c379a00000000000000000000000000000000000000000000000000000000081526004016103d89061118b565b60405180910390fd5b80600360008573ffffffffffffffffffffffffffffffffffffffff1673ffffffffffffffffffffffffffffffffffffffff168152602001908152602001600020600082825461043091906110c3565b92505081905550806001600082825461044991906110c3565b9250508190555061045a8382610984565b7fdf20fd1e76bc69d672e4814fafb2c449bba3a5369d8359adf9e05e6fde87b056838260405161048b92919061120a565b60405180910390a1505050565b60008054905090565b6000600660008473ffffffffffffffffffffffffffffffffffffffff1673ffffffffffffffffffffffffffffffffffffffff16815260200190815260200160002060008373ffffffffffffffffffffffffffffffffffffffff1673ffffffffffffffffffffffffffffffffffffffff16815260200190815260200160002054905092915050565b6000600260008373ffffffffffffffffffffffffffffffffffffffff1673ffffffffffffffffffffffffffffffffffffffff16815260200190815260200160002054116105aa576040517f08c379a00000000000000000000000000000000000000000000000000000000081526004016105a190611074565b60405180910390fd5b60006105b5836108c3565b8373ffffffffffffffffffffffffffffffffffffffff166370a08231306040518263ffffffff1660e01b81526004016105ee9190610f23565b602060405180830381865afa15801561060b573d6000803e3d6000fd5b505050506040513d601f19601f8201168201806040525081019061062f9190611248565b61063991906110c3565b90506000610651838361064c87876104a1565b610916565b90506000811415610697576040517f08c379a000000000000000000000000000000000000000000000000000000000815260040161068e9061118b565b60405180910390fd5b80600660008673ffffffffffffffffffffffffffffffffffffffff1673ffffffffffffffffffffffffffffffffffffffff16815260200190815260200160002060008573ffffffffffffffffffffffffffffffffffffffff1673ffffffffffffffffffffffffffffffffffffffff168152602001908152602001600020600082825461072391906110c3565b9250508190555080600560008673ffffffffffffffffffffffffffffffffffffffff1673ffffffffffffffffffffffffffffffffffffffff168152602001908152602001600020600082825461077991906110c3565b9250508190555061078b848483610a78565b8373ffffffffffffffffffffffffffffffffffffffff167f3be5b7a71e84ed12875d241991c70855ac5817d847039e17a9d895c1ceb0f18a84836040516107d3929190610dc5565b60405180910390a250505050565b600030905090565b6000600482815481106107ff576107fe611275565b5b9060005260206000200160009054906101000a900473ffffffffffffffffffffffffffffffffffffffff169050919050565b6000600360008373ffffffffffffffffffffffffffffffffffffffff1673ffffffffffffffffffffffffffffffffffffffff168152602001908152602001600020549050919050565b6000600260008373ffffffffffffffffffffffffffffffffffffffff1673ffffffffffffffffffffffffffffffffffffffff168152602001908152602001600020549050919050565b6000600560008373ffffffffffffffffffffffffffffffffffffffff1673ffffffffffffffffffffffffffffffffffffffff168152602001908152602001600020549050919050565b6000600154905090565b600081600054600260008773ffffffffffffffffffffffffffffffffffffffff1673ffffffffffffffffffffffffffffffffffffffff168152602001908152602001600020548561096791906112a4565b610971919061132d565b61097b919061135e565b90509392505050565b804710156109c7576040517f08c379a00000000000000000000000000000000000000000000000000000000081526004016109be906113de565b60405180910390fd5b60008273ffffffffffffffffffffffffffffffffffffffff16826040516109ed9061142f565b60006040518083038185875af1925050503d8060008114610a2a576040519150601f19603f3d011682016040523d82523d6000602084013e610a2f565b606091505b5050905080610a73576040517f08c379a0000000000000000000000000000000000000000000000000000000008152600401610a6a906114b6565b60405180910390fd5b505050565b610af98363a9059cbb60e01b8484604051602401610a97929190610dc5565b604051602081830303815290604052907bffffffffffffffffffffffffffffffffffffffffffffffffffffffff19166020820180517bffffffffffffffffffffffffffffffffffffffffffffffffffffffff8381831617835250505050610afe565b505050565b6000610b60826040518060400160405280602081526020017f5361666545524332303a206c6f772d6c6576656c2063616c6c206661696c65648152508573ffffffffffffffffffffffffffffffffffffffff16610bc59092919063ffffffff16565b9050600081511115610bc05780806020019051810190610b80919061150e565b610bbf576040517f08c379a0000000000000000000000000000000000000000000000000000000008152600401610bb6906115ad565b60405180910390fd5b5b505050565b6060610bd48484600085610bdd565b90509392505050565b606082471015610c22576040517f08c379a0000000000000000000000000000000000000000000000000000000008152600401610c199061163f565b60405180910390fd5b610c2b85610cf1565b610c6a576040517f08c379a0000000000000000000000000000000000000000000000000000000008152600401610c61906116ab565b60405180910390fd5b6000808673ffffffffffffffffffffffffffffffffffffffff168587604051610c93919061173a565b60006040518083038185875af1925050503d8060008114610cd0576040519150601f19603f3d011682016040523d82523d6000602084013e610cd5565b606091505b5091509150610ce5828286610d04565b92505050949350505050565b600080823b905060008111915050919050565b60608315610d1457829050610d64565b600083511115610d275782518084602001fd5b816040517f08c379a0000000000000000000000000000000000000000000000000000000008152600401610d5b91906117a6565b60405180910390fd5b9392505050565b600073ffffffffffffffffffffffffffffffffffffffff82169050919050565b6000610d9682610d6b565b9050919050565b610da681610d8b565b82525050565b6000819050919050565b610dbf81610dac565b82525050565b6000604082019050610dda6000830185610d9d565b610de76020830184610db6565b9392505050565b600080fd5b6000610dfe82610d6b565b9050919050565b610e0e81610df3565b8114610e1957600080fd5b50565b600081359050610e2b81610e05565b92915050565b600060208284031215610e4757610e46610dee565b5b6000610e5584828501610e1c565b91505092915050565b6000602082019050610e736000830184610db6565b92915050565b6000610e8482610d8b565b9050919050565b610e9481610e79565b8114610e9f57600080fd5b50565b600081359050610eb181610e8b565b92915050565b610ec081610d8b565b8114610ecb57600080fd5b50565b600081359050610edd81610eb7565b92915050565b60008060408385031215610efa57610ef9610dee565b5b6000610f0885828601610ea2565b9250506020610f1985828601610ece565b9150509250929050565b6000602082019050610f386000830184610d9d565b92915050565b610f4781610dac565b8114610f5257600080fd5b50565b600081359050610f6481610f3e565b92915050565b600060208284031215610f8057610f7f610dee565b5b6000610f8e84828501610f55565b91505092915050565b600060208284031215610fad57610fac610dee565b5b6000610fbb84828501610ece565b91505092915050565b600060208284031215610fda57610fd9610dee565b5b6000610fe884828501610ea2565b91505092915050565b600082825260208201905092915050565b7f5061796d656e7453706c69747465723a206163636f756e7420686173206e6f2060008201527f7368617265730000000000000000000000000000000000000000000000000000602082015250565b600061105e602683610ff1565b915061106982611002565b604082019050919050565b6000602082019050818103600083015261108d81611051565b9050919050565b7f4e487b7100000000000000000000000000000000000000000000000000000000600052601160045260246000fd5b60006110ce82610dac565b91506110d983610dac565b9250827fffffffffffffffffffffffffffffffffffffffffffffffffffffffffffffffff0382111561110e5761110d611094565b5b828201905092915050565b7f5061796d656e7453706c69747465723a206163636f756e74206973206e6f742060008201527f647565207061796d656e74000000000000000000000000000000000000000000602082015250565b6000611175602b83610ff1565b915061118082611119565b604082019050919050565b600060208201905081810360008301526111a481611168565b9050919050565b6000819050919050565b60006111d06111cb6111c684610d6b565b6111ab565b610d6b565b9050919050565b60006111e2826111b5565b9050919050565b60006111f4826111d7565b9050919050565b611204816111e9565b82525050565b600060408201905061121f60008301856111fb565b61122c6020830184610db6565b9392505050565b60008151905061124281610f3e565b92915050565b60006020828403121561125e5761125d610dee565b5b600061126c84828501611233565b91505092915050565b7f4e487b7100000000000000000000000000000000000000000000000000000000600052603260045260246000fd5b60006112af82610dac565b91506112ba83610dac565b9250817fffffffffffffffffffffffffffffffffffffffffffffffffffffffffffffffff04831182151516156112f3576112f2611094565b5b828202905092915050565b7f4e487b7100000000000000000000000000000000000000000000000000000000600052601260045260246000fd5b600061133882610dac565b915061134383610dac565b925082611353576113526112fe565b5b828204905092915050565b600061136982610dac565b915061137483610dac565b92508282101561138757611386611094565b5b828203905092915050565b7f416464726573733a20696e73756666696369656e742062616c616e6365000000600082015250565b60006113c8601d83610ff1565b91506113d382611392565b602082019050919050565b600060208201905081810360008301526113f7816113bb565b9050919050565b600081905092915050565b50565b60006114196000836113fe565b915061142482611409565b600082019050919050565b600061143a8261140c565b9150819050919050565b7f416464726573733a20756e61626c6520746f2073656e642076616c75652c207260008201527f6563697069656e74206d61792068617665207265766572746564000000000000602082015250565b60006114a0603a83610ff1565b91506114ab82611444565b604082019050919050565b600060208201905081810360008301526114cf81611493565b9050919050565b60008115159050919050565b6114eb816114d6565b81146114f657600080fd5b50565b600081519050611508816114e2565b92915050565b60006020828403121561152457611523610dee565b5b6000611532848285016114f9565b91505092915050565b7f5361666545524332303a204552433230206f7065726174696f6e20646964206e60008201527f6f74207375636365656400000000000000000000000000000000000000000000602082015250565b6000611597602a83610ff1565b91506115a28261153b565b604082019050919050565b600060208201905081810360008301526115c68161158a565b9050919050565b7f416464726573733a20696e73756666696369656e742062616c616e636520666f60008201527f722063616c6c0000000000000000000000000000000000000000000000000000602082015250565b6000611629602683610ff1565b9150611634826115cd565b604082019050919050565b600060208201905081810360008301526116588161161c565b9050919050565b7f416464726573733a2063616c6c20746f206e6f6e2d636f6e7472616374000000600082015250565b6000611695601d83610ff1565b91506116a08261165f565b602082019050919050565b600060208201905081810360008301526116c481611688565b9050919050565b600081519050919050565b60005b838110156116f45780820151818401526020810190506116d9565b83811115611703576000848401525b50505050565b6000611714826116cb565b61171e81856113fe565b935061172e8185602086016116d6565b80840191505092915050565b60006117468284611709565b915081905092915050565b600081519050919050565b6000601f19601f8301169050919050565b600061177882611751565b6117828185610ff1565b93506117928185602086016116d6565b61179b8161175c565b840191505092915050565b600060208201905081810360008301526117c0818461176d565b90509291505056fea26469706673582212203834131ae556359ac7599ee202eb5b3e7d4cb4c87e66877450a4c6651fddf7b164736f6c634300080a0033",
  "immutableReferences": {},
  "source": "//SPDX-License-Identifier: 0BSD\npragma solidity ^0.8.10;\n\nimport \"@openzeppelin/contracts/finance/PaymentSplitter.sol\";\n\ncontract PaymentMGR is PaymentSplitter {\n\n    constructor(address[] memory payees, uint256[] memory shares_) PaymentSplitter(payees,shares_) {}\n\n    function addrPaymentMGR() external view returns (address) {\n        return address(this);\n    }\n\n\n}",
  "sourcePath": "/home/user/Projects/automat/contracts/PaymentMGR.sol",
  "compiler": {
    "name": "solc",
    "version": "0.8.10+commit.fc410830.Emscripten.clang"
  },
  "schemaVersion": "3.4.3",
  "updatedAt": "2022-01-25T07:53:58.638Z",
  "networkType": "ethereum",
  "devdoc": {
    "kind": "dev",
    "methods": {
      "payee(uint256)": {
        "details": "Getter for the address of the payee number `index`."
      },
      "release(address)": {
        "details": "Triggers a transfer to `account` of the amount of Ether they are owed, according to their percentage of the total shares and their previous withdrawals."
      },
      "release(address,address)": {
        "details": "Triggers a transfer to `account` of the amount of `token` tokens they are owed, according to their percentage of the total shares and their previous withdrawals. `token` must be the address of an IERC20 contract."
      },
      "released(address)": {
        "details": "Getter for the amount of Ether already released to a payee."
      },
      "released(address,address)": {
        "details": "Getter for the amount of `token` tokens already released to a payee. `token` should be the address of an IERC20 contract."
      },
      "shares(address)": {
        "details": "Getter for the amount of shares held by an account."
      },
      "totalReleased()": {
        "details": "Getter for the total amount of Ether already released."
      },
      "totalReleased(address)": {
        "details": "Getter for the total amount of `token` already released. `token` should be the address of an IERC20 contract."
      },
      "totalShares()": {
        "details": "Getter for the total shares held by payees."
      }
    },
    "version": 1
  },
  "userdoc": {
    "kind": "user",
    "methods": {},
    "version": 1
  }
}